{
  "_format": "hh-sol-artifact-1",
  "contractName": "Palindrome",
  "sourceName": "src/contracts/Palindrome.sol",
  "abi": [
    {
      "inputs": [],
      "stateMutability": "nonpayable",
      "type": "constructor"
    },
    {
      "anonymous": false,
      "inputs": [
        {
          "indexed": true,
          "internalType": "address",
          "name": "owner",
          "type": "address"
        },
        {
          "indexed": true,
          "internalType": "address",
          "name": "spender",
          "type": "address"
        },
        {
          "indexed": false,
          "internalType": "uint256",
          "name": "value",
          "type": "uint256"
        }
      ],
      "name": "Approval",
      "type": "event"
    },
    {
      "anonymous": false,
      "inputs": [
        {
          "indexed": true,
          "internalType": "address",
          "name": "previousOwner",
          "type": "address"
        },
        {
          "indexed": true,
          "internalType": "address",
          "name": "newOwner",
          "type": "address"
        }
      ],
      "name": "OwnershipTransferred",
      "type": "event"
    },
    {
      "anonymous": false,
      "inputs": [
        {
          "indexed": true,
          "internalType": "address",
          "name": "from",
          "type": "address"
        },
        {
          "indexed": true,
          "internalType": "address",
          "name": "to",
          "type": "address"
        },
        {
          "indexed": false,
          "internalType": "uint256",
          "name": "value",
          "type": "uint256"
        }
      ],
      "name": "Transfer",
      "type": "event"
    },
    {
      "inputs": [
        {
          "internalType": "address",
          "name": "owner",
          "type": "address"
        },
        {
          "internalType": "address",
          "name": "spender",
          "type": "address"
        }
      ],
      "name": "allowance",
      "outputs": [
        {
          "internalType": "uint256",
          "name": "",
          "type": "uint256"
        }
      ],
      "stateMutability": "view",
      "type": "function"
    },
    {
      "inputs": [
        {
          "internalType": "address",
          "name": "spender",
          "type": "address"
        },
        {
          "internalType": "uint256",
          "name": "amount",
          "type": "uint256"
        }
      ],
      "name": "approve",
      "outputs": [
        {
          "internalType": "bool",
          "name": "",
          "type": "bool"
        }
      ],
      "stateMutability": "nonpayable",
      "type": "function"
    },
    {
      "inputs": [
        {
          "internalType": "address",
          "name": "account",
          "type": "address"
        }
      ],
      "name": "balanceOf",
      "outputs": [
        {
          "internalType": "uint256",
          "name": "",
          "type": "uint256"
        }
      ],
      "stateMutability": "view",
      "type": "function"
    },
    {
      "inputs": [],
      "name": "decimals",
      "outputs": [
        {
          "internalType": "uint8",
          "name": "",
          "type": "uint8"
        }
      ],
      "stateMutability": "view",
      "type": "function"
    },
    {
      "inputs": [
        {
          "internalType": "address",
          "name": "spender",
          "type": "address"
        },
        {
          "internalType": "uint256",
          "name": "subtractedValue",
          "type": "uint256"
        }
      ],
      "name": "decreaseAllowance",
      "outputs": [
        {
          "internalType": "bool",
          "name": "",
          "type": "bool"
        }
      ],
      "stateMutability": "nonpayable",
      "type": "function"
    },
    {
      "inputs": [
        {
          "internalType": "address",
          "name": "account",
          "type": "address"
        }
      ],
      "name": "excludeAccount",
      "outputs": [],
      "stateMutability": "nonpayable",
      "type": "function"
    },
    {
      "inputs": [
        {
          "internalType": "address",
          "name": "account",
          "type": "address"
        }
      ],
      "name": "includeAccount",
      "outputs": [],
      "stateMutability": "nonpayable",
      "type": "function"
    },
    {
      "inputs": [
        {
          "internalType": "address",
          "name": "spender",
          "type": "address"
        },
        {
          "internalType": "uint256",
          "name": "addedValue",
          "type": "uint256"
        }
      ],
      "name": "increaseAllowance",
      "outputs": [
        {
          "internalType": "bool",
          "name": "",
          "type": "bool"
        }
      ],
      "stateMutability": "nonpayable",
      "type": "function"
    },
    {
      "inputs": [
        {
          "internalType": "address",
          "name": "account",
          "type": "address"
        }
      ],
      "name": "isExcluded",
      "outputs": [
        {
          "internalType": "bool",
          "name": "",
          "type": "bool"
        }
      ],
      "stateMutability": "view",
      "type": "function"
    },
    {
      "inputs": [],
      "name": "name",
      "outputs": [
        {
          "internalType": "string",
          "name": "",
          "type": "string"
        }
      ],
      "stateMutability": "view",
      "type": "function"
    },
    {
      "inputs": [],
      "name": "owner",
      "outputs": [
        {
          "internalType": "address",
          "name": "",
          "type": "address"
        }
      ],
      "stateMutability": "view",
      "type": "function"
    },
    {
      "inputs": [
        {
          "internalType": "uint256",
          "name": "tAmount",
          "type": "uint256"
        }
      ],
      "name": "reflect",
      "outputs": [],
      "stateMutability": "nonpayable",
      "type": "function"
    },
    {
      "inputs": [
        {
          "internalType": "uint256",
          "name": "tAmount",
          "type": "uint256"
        },
        {
          "internalType": "bool",
          "name": "deductTransferFee",
          "type": "bool"
        }
      ],
      "name": "reflectionFromToken",
      "outputs": [
        {
          "internalType": "uint256",
          "name": "",
          "type": "uint256"
        }
      ],
      "stateMutability": "view",
      "type": "function"
    },
    {
      "inputs": [],
      "name": "renounceOwnership",
      "outputs": [],
      "stateMutability": "nonpayable",
      "type": "function"
    },
    {
      "inputs": [
        {
          "internalType": "uint256",
          "name": "_taxFee",
          "type": "uint256"
        }
      ],
      "name": "setTaxFeePercent",
      "outputs": [],
      "stateMutability": "nonpayable",
      "type": "function"
    },
    {
      "inputs": [],
      "name": "symbol",
      "outputs": [
        {
          "internalType": "string",
          "name": "",
          "type": "string"
        }
      ],
      "stateMutability": "view",
      "type": "function"
    },
    {
      "inputs": [],
      "name": "taxFee",
      "outputs": [
        {
          "internalType": "uint256",
          "name": "",
          "type": "uint256"
        }
      ],
      "stateMutability": "view",
      "type": "function"
    },
    {
      "inputs": [],
      "name": "taxToSetter",
      "outputs": [
        {
          "internalType": "address",
          "name": "",
          "type": "address"
        }
      ],
      "stateMutability": "view",
      "type": "function"
    },
    {
      "inputs": [
        {
          "internalType": "uint256",
          "name": "rAmount",
          "type": "uint256"
        }
      ],
      "name": "tokenFromReflection",
      "outputs": [
        {
          "internalType": "uint256",
          "name": "",
          "type": "uint256"
        }
      ],
      "stateMutability": "view",
      "type": "function"
    },
    {
      "inputs": [],
      "name": "totalFees",
      "outputs": [
        {
          "internalType": "uint256",
          "name": "",
          "type": "uint256"
        }
      ],
      "stateMutability": "view",
      "type": "function"
    },
    {
      "inputs": [],
      "name": "totalSupply",
      "outputs": [
        {
          "internalType": "uint256",
          "name": "",
          "type": "uint256"
        }
      ],
      "stateMutability": "pure",
      "type": "function"
    },
    {
      "inputs": [
        {
          "internalType": "address",
          "name": "recipient",
          "type": "address"
        },
        {
          "internalType": "uint256",
          "name": "amount",
          "type": "uint256"
        }
      ],
      "name": "transfer",
      "outputs": [
        {
          "internalType": "bool",
          "name": "",
          "type": "bool"
        }
      ],
      "stateMutability": "nonpayable",
      "type": "function"
    },
    {
      "inputs": [
        {
          "internalType": "address",
          "name": "sender",
          "type": "address"
        },
        {
          "internalType": "address",
          "name": "recipient",
          "type": "address"
        },
        {
          "internalType": "uint256",
          "name": "amount",
          "type": "uint256"
        }
      ],
      "name": "transferFrom",
      "outputs": [
        {
          "internalType": "bool",
          "name": "",
          "type": "bool"
        }
      ],
      "stateMutability": "nonpayable",
      "type": "function"
    },
    {
      "inputs": [
        {
          "internalType": "address",
          "name": "newOwner",
          "type": "address"
        }
      ],
      "name": "transferOwnership",
      "outputs": [],
      "stateMutability": "nonpayable",
      "type": "function"
    }
  ],
  "bytecode": "0x6080604052620000206d01090ea8dd15c797843740000000600019620002f0565b6200002e906000196200028f565b600655600a6009819055604080518082019091528181526950616c696e64726f6d6560b01b602090910190815262000068919081620001e0565b5060408051808201909152600a8082526950616c696e64726f6d6560b01b60209092019182526200009c91600b91620001e0565b50600c805460ff19166012179055348015620000b757600080fd5b50620000cc620000c66200018c565b62000190565b60065460016000620000dd6200018c565b6001600160a01b03168152602081019190915260400160002055620001016200018c565b600880546001600160a01b0319166001600160a01b03929092169190911790556200012b6200018c565b6001600160a01b031660006001600160a01b03167fddf252ad1be2c89b69c2b068fc378daa952ba7f163c4a11628f55a4df523b3ef6d01090ea8dd15c7978437400000006040516200017e919062000286565b60405180910390a362000311565b3390565b600080546001600160a01b038381166001600160a01b0319831681178455604051919092169283917f8be0079c531659141344cd1fd0a4f28419497f9722a3daafe3b4186f6b6457e09190a35050565b828054620001ee90620002b3565b90600052602060002090601f0160209004810192826200021257600085556200025d565b82601f106200022d57805160ff19168380011785556200025d565b828001600101855582156200025d579182015b828111156200025d57825182559160200191906001019062000240565b506200026b9291506200026f565b5090565b5b808211156200026b576000815560010162000270565b90815260200190565b600082821015620002ae57634e487b7160e01b81526011600452602481fd5b500390565b600281046001821680620002c857607f821691505b60208210811415620002ea57634e487b7160e01b600052602260045260246000fd5b50919050565b6000826200030c57634e487b7160e01b81526012600452602481fd5b500690565b611a1880620003216000396000f3fe608060405234801561001057600080fd5b50600436106101585760003560e01c8063715018a6116100c3578063cba0e9961161007c578063cba0e996146102a7578063cd4f98a6146102ba578063dd62ed3e146102c2578063f2cc0c18146102d5578063f2fde38b146102e8578063f84354f1146102fb57610158565b8063715018a6146102545780638da5cb5b1461025c57806395d89b4114610271578063a071dcf414610279578063a457c2d714610281578063a9059cbb1461029457610158565b806323b872dd1161011557806323b872dd146101e05780632d838119146101f3578063313ce56714610206578063395093511461021b5780634549b0391461022e57806370a082311461024157610158565b8063053ab1821461015d578063061c82d01461017257806306fdde0314610185578063095ea7b3146101a357806313114a9d146101c357806318160ddd146101d8575b600080fd5b61017061016b3660046114e1565b61030e565b005b6101706101803660046114e1565b6103d0565b61018d61040f565b60405161019a919061154b565b60405180910390f35b6101b66101b13660046114b8565b6104a1565b60405161019a9190611540565b6101cb6104bf565b60405161019a91906118a4565b6101cb6104c5565b6101b66101ee36600461147d565b6104d7565b6101cb6102013660046114e1565b61055e565b61020e6105a1565b60405161019a91906118ad565b6101b66102293660046114b8565b6105aa565b6101cb61023c3660046114f9565b6105f8565b6101cb61024f366004611431565b61065f565b6101706106c1565b61026461070c565b60405161019a919061152c565b61018d61071b565b6101cb61072a565b6101b661028f3660046114b8565b610730565b6101b66102a23660046114b8565b610798565b6101b66102b5366004611431565b6107ac565b6102646107ca565b6101cb6102d036600461144b565b6107d9565b6101706102e3366004611431565b610804565b6101706102f6366004611431565b61093c565b610170610309366004611431565b6109ad565b6000610318610b82565b6001600160a01b03811660009081526004602052604090205490915060ff161561035d5760405162461bcd60e51b815260040161035490611858565b60405180910390fd5b600061036883610b86565b505050506001600160a01b0383166000908152600160205260409020549091506103929082610bd2565b6001600160a01b0383166000908152600160205260409020556006546103b89082610bd2565b6006556007546103c89084610be5565b600755505050565b6008546001600160a01b03166103e4610b82565b6001600160a01b03161461040a5760405162461bcd60e51b8152600401610354906115e1565b600955565b6060600a805461041e90611929565b80601f016020809104026020016040519081016040528092919081815260200182805461044a90611929565b80156104975780601f1061046c57610100808354040283529160200191610497565b820191906000526020600020905b81548152906001019060200180831161047a57829003601f168201915b5050505050905090565b60006104b56104ae610b82565b8484610bf1565b5060015b92915050565b60075490565b6d01090ea8dd15c79784374000000090565b60006104e4848484610ca5565b610554846104f0610b82565b61054f85604051806060016040528060288152602001611996602891396001600160a01b038a1660009081526003602052604081209061052e610b82565b6001600160a01b031681526020810191909152604001600020549190610e6a565b610bf1565b5060019392505050565b60006006548211156105825760405162461bcd60e51b815260040161035490611611565b600061058c610e96565b90506105988382610eb9565b9150505b919050565b600c5460ff1690565b60006104b56105b7610b82565b8461054f85600360006105c8610b82565b6001600160a01b03908116825260208083019390935260409182016000908120918c168152925290205490610be5565b60006d01090ea8dd15c7978437400000008311156106285760405162461bcd60e51b81526004016103549061171a565b8161064657600061063884610b86565b509294506104b99350505050565b600061065184610b86565b509194506104b99350505050565b6001600160a01b03811660009081526004602052604081205460ff161561069f57506001600160a01b03811660009081526002602052604090205461059c565b6001600160a01b0382166000908152600160205260409020546104b99061055e565b6106c9610b82565b6001600160a01b03166106da61070c565b6001600160a01b0316146107005760405162461bcd60e51b815260040161035490611751565b61070a6000610ec5565b565b6000546001600160a01b031690565b6060600b805461041e90611929565b60095481565b60006104b561073d610b82565b8461054f856040518060600160405280602581526020016119be6025913960036000610767610b82565b6001600160a01b03908116825260208083019390935260409182016000908120918d16815292529020549190610e6a565b60006104b56107a5610b82565b8484610ca5565b6001600160a01b031660009081526004602052604090205460ff1690565b6008546001600160a01b031681565b6001600160a01b03918216600090815260036020908152604080832093909416825291909152205490565b61080c610b82565b6001600160a01b031661081d61070c565b6001600160a01b0316146108435760405162461bcd60e51b815260040161035490611751565b6001600160a01b03811660009081526004602052604090205460ff161561087c5760405162461bcd60e51b8152600401610354906116e3565b6001600160a01b038116600090815260016020526040902054156108d6576001600160a01b0381166000908152600160205260409020546108bc9061055e565b6001600160a01b0382166000908152600260205260409020555b6001600160a01b03166000818152600460205260408120805460ff191660019081179091556005805491820181559091527f036b6384b5eca791c62761152d0c79bb0604c104a5fb6f4eb0703f3154bb3db00180546001600160a01b0319169091179055565b610944610b82565b6001600160a01b031661095561070c565b6001600160a01b03161461097b5760405162461bcd60e51b815260040161035490611751565b6001600160a01b0381166109a15760405162461bcd60e51b81526004016103549061165b565b6109aa81610ec5565b50565b6109b5610b82565b6001600160a01b03166109c661070c565b6001600160a01b0316146109ec5760405162461bcd60e51b815260040161035490611751565b6001600160a01b03811660009081526004602052604090205460ff16610a245760405162461bcd60e51b8152600401610354906116e3565b60005b600554811015610b7e57816001600160a01b031660058281548110610a5c57634e487b7160e01b600052603260045260246000fd5b6000918252602090912001546001600160a01b03161415610b6c5760058054610a8790600190611912565b81548110610aa557634e487b7160e01b600052603260045260246000fd5b600091825260209091200154600580546001600160a01b039092169183908110610adf57634e487b7160e01b600052603260045260246000fd5b600091825260208083209190910180546001600160a01b0319166001600160a01b039485161790559184168152600282526040808220829055600490925220805460ff191690556005805480610b4557634e487b7160e01b600052603160045260246000fd5b600082815260209020810160001990810180546001600160a01b0319169055019055610b7e565b80610b7681611964565b915050610a27565b5050565b3390565b6000806000806000806000610b9a88610f15565b915091506000610ba8610e96565b90506000806000610bba8c8686610f53565b919e909d50909b509599509397509395505050505050565b6000610bde8284611912565b9392505050565b6000610bde82846118bb565b6001600160a01b038316610c175760405162461bcd60e51b815260040161035490611814565b6001600160a01b038216610c3d5760405162461bcd60e51b8152600401610354906116a1565b6001600160a01b0380841660008181526003602090815260408083209487168084529490915290819020849055517f8c5be1e5ebec7d5bd14f71427d1e84f3dd0314c0f7b2291e5b200ac8c7c3b92590610c989085906118a4565b60405180910390a3505050565b6001600160a01b038316610ccb5760405162461bcd60e51b8152600401610354906117cf565b6001600160a01b038216610cf15760405162461bcd60e51b81526004016103549061159e565b60008111610d115760405162461bcd60e51b815260040161035490611786565b6001600160a01b03831660009081526004602052604090205460ff168015610d5257506001600160a01b03821660009081526004602052604090205460ff16155b15610d6757610d62838383610f8f565b610e65565b6001600160a01b03831660009081526004602052604090205460ff16158015610da857506001600160a01b03821660009081526004602052604090205460ff165b15610db857610d628383836110a6565b6001600160a01b03831660009081526004602052604090205460ff16158015610dfa57506001600160a01b03821660009081526004602052604090205460ff16155b15610e0a57610d6283838361114c565b6001600160a01b03831660009081526004602052604090205460ff168015610e4a57506001600160a01b03821660009081526004602052604090205460ff165b15610e5a57610d6283838361118d565b610e6583838361114c565b505050565b60008184841115610e8e5760405162461bcd60e51b8152600401610354919061154b565b505050900390565b6000806000610ea36111fd565b9092509050610eb28282610eb9565b9250505090565b6000610bde82846118d3565b600080546001600160a01b038381166001600160a01b0319831681178455604051919092169283917f8be0079c531659141344cd1fd0a4f28419497f9722a3daafe3b4186f6b6457e09190a35050565b6000806000610f3a600954610f34606487610eb990919063ffffffff16565b906113ea565b90506000610f488583610bd2565b935090915050915091565b6000808080610f6287866113ea565b90506000610f7087876113ea565b90506000610f7e8383610bd2565b929992985090965090945050505050565b6000806000806000610fa086610b86565b6001600160a01b038d1660009081526002602052604090205494995092975090955093509150610fd09087610bd2565b6001600160a01b038916600090815260026020908152604080832093909355600190522054610fff9086610bd2565b6001600160a01b03808a16600090815260016020526040808220939093559089168152205461102e9085610be5565b6001600160a01b03881660009081526001602052604090205561105183826113f6565b866001600160a01b0316886001600160a01b03167fddf252ad1be2c89b69c2b068fc378daa952ba7f163c4a11628f55a4df523b3ef8460405161109491906118a4565b60405180910390a35050505050505050565b60008060008060006110b786610b86565b6001600160a01b038d16600090815260016020526040902054949950929750909550935091506110e79086610bd2565b6001600160a01b03808a16600090815260016020908152604080832094909455918a1681526002909152205461111d9083610be5565b6001600160a01b03881660009081526002602090815260408083209390935560019052205461102e9085610be5565b600080600080600061115d86610b86565b6001600160a01b038d1660009081526001602052604090205494995092975090955093509150610fff9086610bd2565b600080600080600061119e86610b86565b6001600160a01b038d16600090815260026020526040902054949950929750909550935091506111ce9087610bd2565b6001600160a01b0389166000908152600260209081526040808320939093556001905220546110e79086610bd2565b60065460009081906d01090ea8dd15c797843740000000825b6005548110156113a05782600160006005848154811061124657634e487b7160e01b600052603260045260246000fd5b60009182526020808320909101546001600160a01b0316835282019290925260400190205411806112bf575081600260006005848154811061129857634e487b7160e01b600052603260045260246000fd5b60009182526020808320909101546001600160a01b03168352820192909252604001902054115b156112e2576006546d01090ea8dd15c797843740000000945094505050506113e6565b611336600160006005848154811061130a57634e487b7160e01b600052603260045260246000fd5b60009182526020808320909101546001600160a01b031683528201929092526040019020548490610bd2565b925061138c600260006005848154811061136057634e487b7160e01b600052603260045260246000fd5b60009182526020808320909101546001600160a01b031683528201929092526040019020548390610bd2565b91508061139881611964565b915050611216565b506006546113bc906d01090ea8dd15c797843740000000610eb9565b8210156113e0576006546d01090ea8dd15c7978437400000009350935050506113e6565b90925090505b9091565b6000610bde82846118f3565b6006546114039083610bd2565b6006556007546114139082610be5565b6007555050565b80356001600160a01b038116811461059c57600080fd5b600060208284031215611442578081fd5b610bde8261141a565b6000806040838503121561145d578081fd5b6114668361141a565b91506114746020840161141a565b90509250929050565b600080600060608486031215611491578081fd5b61149a8461141a565b92506114a86020850161141a565b9150604084013590509250925092565b600080604083850312156114ca578182fd5b6114d38361141a565b946020939093013593505050565b6000602082840312156114f2578081fd5b5035919050565b6000806040838503121561150b578182fd5b8235915060208301358015158114611521578182fd5b809150509250929050565b6001600160a01b0391909116815260200190565b901515815260200190565b6000602080835283518082850152825b818110156115775785810183015185820160400152820161155b565b818111156115885783604083870101525b50601f01601f1916929092016040019392505050565b60208082526023908201527f45524332303a207472616e7366657220746f20746865207a65726f206164647260408201526265737360e81b606082015260800190565b6020808252601690820152753a30bc2a37a9b2ba3a32b91d102327a92124a22222a760511b604082015260600190565b6020808252602a908201527f416d6f756e74206d757374206265206c657373207468616e20746f74616c207260408201526965666c656374696f6e7360b01b606082015260800190565b60208082526026908201527f4f776e61626c653a206e6577206f776e657220697320746865207a65726f206160408201526564647265737360d01b606082015260800190565b60208082526022908201527f45524332303a20617070726f766520746f20746865207a65726f206164647265604082015261737360f01b606082015260800190565b6020808252601b908201527f4163636f756e7420697320616c7265616479206578636c756465640000000000604082015260600190565b6020808252601f908201527f416d6f756e74206d757374206265206c657373207468616e20737570706c7900604082015260600190565b6020808252818101527f4f776e61626c653a2063616c6c6572206973206e6f7420746865206f776e6572604082015260600190565b60208082526029908201527f5472616e7366657220616d6f756e74206d7573742062652067726561746572206040820152687468616e207a65726f60b81b606082015260800190565b60208082526025908201527f45524332303a207472616e736665722066726f6d20746865207a65726f206164604082015264647265737360d81b606082015260800190565b60208082526024908201527f45524332303a20617070726f76652066726f6d20746865207a65726f206164646040820152637265737360e01b606082015260800190565b6020808252602c908201527f4578636c75646564206164647265737365732063616e6e6f742063616c6c207460408201526b3434b990333ab731ba34b7b760a11b606082015260800190565b90815260200190565b60ff91909116815260200190565b600082198211156118ce576118ce61197f565b500190565b6000826118ee57634e487b7160e01b81526012600452602481fd5b500490565b600081600019048311821515161561190d5761190d61197f565b500290565b6000828210156119245761192461197f565b500390565b60028104600182168061193d57607f821691505b6020821081141561195e57634e487b7160e01b600052602260045260246000fd5b50919050565b60006000198214156119785761197861197f565b5060010190565b634e487b7160e01b600052601160045260246000fdfe45524332303a207472616e7366657220616d6f756e74206578636565647320616c6c6f77616e636545524332303a2064656372656173656420616c6c6f77616e63652062656c6f77207a65726fa26469706673582212200989995a2284f2320f32919d3b479bb90ef65cd619828fef7c4275d01c9423a264736f6c63430008000033",
  "linkReferences": {},
  "deployedLinkReferences": {}
}